{
  "contractName": "DicioAlliacePoc",
  "abi": [
    {
      "inputs": [],
      "stateMutability": "nonpayable",
      "type": "constructor"
    },
    {
      "inputs": [
        {
          "internalType": "string",
          "name": "_uuid",
          "type": "string"
        }
      ],
      "name": "SearchAlReadyExistError",
      "type": "error"
    },
    {
      "inputs": [
        {
          "internalType": "string",
          "name": "_uuid",
          "type": "string"
        }
      ],
      "name": "SearchCompletedError",
      "type": "error"
    },
    {
      "inputs": [
        {
          "internalType": "string",
          "name": "_uuid",
          "type": "string"
        }
      ],
      "name": "SearchNotExistError",
      "type": "error"
    },
    {
      "anonymous": false,
      "inputs": [
        {
          "indexed": false,
          "internalType": "string",
          "name": "uuid",
          "type": "string"
        }
      ],
      "name": "BroadcastEndingEvent",
      "type": "event"
    },
    {
      "anonymous": false,
      "inputs": [
        {
          "indexed": false,
          "internalType": "address",
          "name": "owner",
          "type": "address"
        },
        {
          "indexed": false,
          "internalType": "string",
          "name": "uuid",
          "type": "string"
        },
        {
          "indexed": false,
          "internalType": "string",
          "name": "cid",
          "type": "string"
        },
        {
          "indexed": false,
          "internalType": "string",
          "name": "curp",
          "type": "string"
        }
      ],
      "name": "BroadcastEvent",
      "type": "event"
    },
    {
      "anonymous": false,
      "inputs": [
        {
          "indexed": false,
          "internalType": "address",
          "name": "owner",
          "type": "address"
        },
        {
          "indexed": false,
          "internalType": "string",
          "name": "uuid",
          "type": "string"
        },
        {
          "indexed": false,
          "internalType": "string",
          "name": "cid",
          "type": "string"
        }
      ],
      "name": "CreatedSearchEvent",
      "type": "event"
    },
    {
      "anonymous": false,
      "inputs": [
        {
          "indexed": false,
          "internalType": "address",
          "name": "previousOwner",
          "type": "address"
        },
        {
          "indexed": false,
          "internalType": "address",
          "name": "newOwner",
          "type": "address"
        }
      ],
      "name": "OwnershipTransferred",
      "type": "event"
    },
    {
      "anonymous": false,
      "inputs": [
        {
          "indexed": false,
          "internalType": "address",
          "name": "participant",
          "type": "address"
        },
        {
          "indexed": false,
          "internalType": "string",
          "name": "uuid",
          "type": "string"
        },
        {
          "indexed": false,
          "internalType": "string",
          "name": "cid",
          "type": "string"
        },
        {
          "indexed": false,
          "internalType": "uint256",
          "name": "id",
          "type": "uint256"
        }
      ],
      "name": "ParticipateEvent",
      "type": "event"
    },
    {
      "anonymous": false,
      "inputs": [
        {
          "indexed": false,
          "internalType": "string",
          "name": "uuid",
          "type": "string"
        },
        {
          "indexed": false,
          "internalType": "string",
          "name": "cid",
          "type": "string"
        }
      ],
      "name": "SetScoreEvent",
      "type": "event"
    },
    {
      "inputs": [],
      "name": "ownerContract",
      "outputs": [
        {
          "internalType": "address",
          "name": "",
          "type": "address"
        }
      ],
      "stateMutability": "view",
      "type": "function"
    },
    {
      "inputs": [],
      "name": "quorum",
      "outputs": [
        {
          "internalType": "uint256",
          "name": "",
          "type": "uint256"
        }
      ],
      "stateMutability": "view",
      "type": "function"
    },
    {
      "inputs": [
        {
          "internalType": "address",
          "name": "_newOwner",
          "type": "address"
        }
      ],
      "name": "setOwner",
      "outputs": [],
      "stateMutability": "nonpayable",
      "type": "function"
    },
    {
      "inputs": [
        {
          "internalType": "uint256",
          "name": "_quorum",
          "type": "uint256"
        }
      ],
      "name": "ChangeQuorum",
      "outputs": [
        {
          "internalType": "bool",
          "name": "",
          "type": "bool"
        }
      ],
      "stateMutability": "nonpayable",
      "type": "function"
    },
    {
      "inputs": [
        {
          "internalType": "string",
          "name": "_uuid",
          "type": "string"
        }
      ],
      "name": "DetailSearch",
      "outputs": [
        {
          "internalType": "address",
          "name": "owner",
          "type": "address"
        },
        {
          "internalType": "string",
          "name": "uuid",
          "type": "string"
        },
        {
          "internalType": "string",
          "name": "curp",
          "type": "string"
        },
        {
          "internalType": "string",
          "name": "cid",
          "type": "string"
        },
        {
          "internalType": "string",
          "name": "score",
          "type": "string"
        },
        {
          "internalType": "uint256",
          "name": "createBroadcast",
          "type": "uint256"
        },
        {
          "internalType": "uint256",
          "name": "endBroadcast",
          "type": "uint256"
        },
        {
          "internalType": "enum DicioAlliacePoc.State",
          "name": "state",
          "type": "uint8"
        },
        {
          "internalType": "uint256",
          "name": "records",
          "type": "uint256"
        },
        {
          "internalType": "uint256",
          "name": "endDate",
          "type": "uint256"
        }
      ],
      "stateMutability": "view",
      "type": "function"
    },
    {
      "inputs": [
        {
          "internalType": "string",
          "name": "_uuid",
          "type": "string"
        },
        {
          "internalType": "string",
          "name": "_curp",
          "type": "string"
        },
        {
          "internalType": "string",
          "name": "_cid",
          "type": "string"
        }
      ],
      "name": "CreateSearch",
      "outputs": [
        {
          "internalType": "bool",
          "name": "",
          "type": "bool"
        }
      ],
      "stateMutability": "nonpayable",
      "type": "function"
    },
    {
      "inputs": [
        {
          "internalType": "string",
          "name": "_uuid",
          "type": "string"
        },
        {
          "internalType": "string",
          "name": "_cid",
          "type": "string"
        }
      ],
      "name": "Participate",
      "outputs": [
        {
          "internalType": "uint256",
          "name": "idRecord",
          "type": "uint256"
        }
      ],
      "stateMutability": "nonpayable",
      "type": "function"
    },
    {
      "inputs": [
        {
          "internalType": "string",
          "name": "_uuid",
          "type": "string"
        },
        {
          "internalType": "uint256",
          "name": "id",
          "type": "uint256"
        }
      ],
      "name": "DetailParticipation",
      "outputs": [
        {
          "internalType": "address",
          "name": "participant",
          "type": "address"
        },
        {
          "internalType": "string",
          "name": "cid",
          "type": "string"
        },
        {
          "internalType": "uint256",
          "name": "recordDate",
          "type": "uint256"
        }
      ],
      "stateMutability": "view",
      "type": "function"
    },
    {
      "inputs": [
        {
          "internalType": "string",
          "name": "_uuid",
          "type": "string"
        },
        {
          "internalType": "string",
          "name": "_cid",
          "type": "string"
        }
      ],
      "name": "SetScore",
      "outputs": [],
      "stateMutability": "nonpayable",
      "type": "function"
    }
  ],
  "bytecode": "0x608060405234801561001057600080fd5b50336000806101000a81548173ffffffffffffffffffffffffffffffffffffffff021916908373ffffffffffffffffffffffffffffffffffffffff1602179055506002600181905550611dda806100686000396000f3fe608060405234801561001057600080fd5b50600436106100935760003560e01c80633851490211610066578063385149021461012757806378fcc307146101575780637f74ac1514610189578063a99ee3cb146101a7578063e5628a72146101d757610093565b80630cd02b681461009857806313af4035146100b45780631703a018146100d057806320670cc6146100ee575b600080fd5b6100b260048036038101906100ad9190611466565b610207565b005b6100ce60048036038101906100c9919061153c565b6103c0565b005b6100d8610561565b6040516100e59190611582565b60405180910390f35b6101086004803603810190610103919061159d565b610567565b60405161011e9a999897969594939291906116f4565b60405180910390f35b610141600480360381019061013c9190611466565b610920565b60405161014e9190611582565b60405180910390f35b610171600480360381019061016c91906117d8565b610ba5565b60405161018093929190611834565b60405180910390f35b610191610d74565b60405161019e9190611872565b60405180910390f35b6101c160048036038101906101bc919061188d565b610d98565b6040516101ce919061194f565b60405180910390f35b6101f160048036038101906101ec919061196a565b61104d565b6040516101fe919061194f565b60405180910390f35b60008260405160200161021a91906119d3565b60405160208183030381529060405280519060200120905060006002600083815260200190815260200160002060050154141561028e57826040517f5156b91b00000000000000000000000000000000000000000000000000000000815260040161028591906119ea565b60405180910390fd5b600160028111156102a2576102a161167d565b5b6002600083815260200190815260200160002060080160009054906101000a900460ff1660028111156102d8576102d761167d565b5b141561031b57826040517f6b45742c00000000000000000000000000000000000000000000000000000000815260040161031291906119ea565b60405180910390fd5b60006002600083815260200190815260200160002090508281600401908051906020019061034a929190611269565b5060028160080160006101000a81548160ff021916908360028111156103735761037261167d565b5b02179055504281600701819055507fc3572503aabdde1aa0eaac5f90971d16455779bf298a342f12d334aa132ebfdf84846040516103b2929190611a0c565b60405180910390a150505050565b3373ffffffffffffffffffffffffffffffffffffffff1660008054906101000a900473ffffffffffffffffffffffffffffffffffffffff1673ffffffffffffffffffffffffffffffffffffffff161461044e576040517f08c379a000000000000000000000000000000000000000000000000000000000815260040161044590611a8f565b60405180910390fd5b600073ffffffffffffffffffffffffffffffffffffffff168173ffffffffffffffffffffffffffffffffffffffff1614156104be576040517f08c379a00000000000000000000000000000000000000000000000000000000081526004016104b590611afb565b60405180910390fd5b60008060009054906101000a900473ffffffffffffffffffffffffffffffffffffffff169050816000806101000a81548173ffffffffffffffffffffffffffffffffffffffff021916908373ffffffffffffffffffffffffffffffffffffffff1602179055507f8be0079c531659141344cd1fd0a4f28419497f9722a3daafe3b4186f6b6457e08183604051610555929190611b1b565b60405180910390a15050565b60015481565b60006060806060806000806000806000808b60405160200161058991906119d3565b60405160208183030381529060405280519060200120905060036000828152602001908152602001600020549250600060026000838152602001908152602001600020604051806101200160405290816000820160009054906101000a900473ffffffffffffffffffffffffffffffffffffffff1673ffffffffffffffffffffffffffffffffffffffff1673ffffffffffffffffffffffffffffffffffffffff16815260200160018201805461063e90611b73565b80601f016020809104026020016040519081016040528092919081815260200182805461066a90611b73565b80156106b75780601f1061068c576101008083540402835291602001916106b7565b820191906000526020600020905b81548152906001019060200180831161069a57829003601f168201915b505050505081526020016002820180546106d090611b73565b80601f01602080910402602001604051908101604052809291908181526020018280546106fc90611b73565b80156107495780601f1061071e57610100808354040283529160200191610749565b820191906000526020600020905b81548152906001019060200180831161072c57829003601f168201915b5050505050815260200160038201805461076290611b73565b80601f016020809104026020016040519081016040528092919081815260200182805461078e90611b73565b80156107db5780601f106107b0576101008083540402835291602001916107db565b820191906000526020600020905b8154815290600101906020018083116107be57829003601f168201915b505050505081526020016004820180546107f490611b73565b80601f016020809104026020016040519081016040528092919081815260200182805461082090611b73565b801561086d5780601f106108425761010080835404028352916020019161086d565b820191906000526020600020905b81548152906001019060200180831161085057829003601f168201915b505050505081526020016005820154815260200160068201548152602001600782015481526020016008820160009054906101000a900460ff1660028111156108b9576108b861167d565b5b60028111156108cb576108ca61167d565b5b81525050905080600001519b5080602001519a508060400151995080606001519850806080015197508060a00151965080610100015194508060c0015195508060e00151925050509193959799509193959799565b6000808360405160200161093491906119d3565b6040516020818303038152906040528051906020012090506000600260008381526020019081526020016000206005015414156109a857836040517f5156b91b00000000000000000000000000000000000000000000000000000000815260040161099f91906119ea565b60405180910390fd5b600160028111156109bc576109bb61167d565b5b6002600083815260200190815260200160002060080160009054906101000a900460ff1660028111156109f2576109f161167d565b5b1415610a3557836040517f6b45742c000000000000000000000000000000000000000000000000000000008152600401610a2c91906119ea565b60405180910390fd5b600360008281526020019081526020016000206000815480929190610a5990611bd4565b91905055506003600082815260200190815260200160002054915060405180606001604052803373ffffffffffffffffffffffffffffffffffffffff1681526020018481526020014281525060046000838152602001908152602001600020600084815260200190815260200160002060008201518160000160006101000a81548173ffffffffffffffffffffffffffffffffffffffff021916908373ffffffffffffffffffffffffffffffffffffffff1602179055506020820151816001019080519060200190610b2c929190611269565b50604082015181600201559050507f19c3db544c1ba627a57810294c8c02444cc195130247e324f5099c00e6d2a87733858585604051610b6f9493929190611c1d565b60405180910390a1600154600360008381526020019081526020016000205410610b9e57610b9c846110ed565b505b5092915050565b6000606060008085604051602001610bbd91906119d3565b604051602081830303815290604052805190602001209050600060026000838152602001908152602001600020600501541415610c3157856040517f5156b91b000000000000000000000000000000000000000000000000000000008152600401610c2891906119ea565b60405180910390fd5b60006004600083815260200190815260200160002060008781526020019081526020016000206040518060600160405290816000820160009054906101000a900473ffffffffffffffffffffffffffffffffffffffff1673ffffffffffffffffffffffffffffffffffffffff1673ffffffffffffffffffffffffffffffffffffffff168152602001600182018054610cc890611b73565b80601f0160208091040260200160405190810160405280929190818152602001828054610cf490611b73565b8015610d415780601f10610d1657610100808354040283529160200191610d41565b820191906000526020600020905b815481529060010190602001808311610d2457829003601f168201915b50505050508152602001600282015481525050905080600001518160200151826040015194509450945050509250925092565b60008054906101000a900473ffffffffffffffffffffffffffffffffffffffff1681565b60008084604051602001610dac91906119d3565b604051602081830303815290604052805190602001209050600060026000838152602001908152602001600020600501541115610e2057846040517f4afcac34000000000000000000000000000000000000000000000000000000008152600401610e1791906119ea565b60405180910390fd5b6040518061012001604052803373ffffffffffffffffffffffffffffffffffffffff168152602001868152602001858152602001848152602001604051806020016040528060008152508152602001428152602001600081526020016000815260200160006002811115610e9757610e9661167d565b5b8152506002600083815260200190815260200160002060008201518160000160006101000a81548173ffffffffffffffffffffffffffffffffffffffff021916908373ffffffffffffffffffffffffffffffffffffffff1602179055506020820151816001019080519060200190610f10929190611269565b506040820151816002019080519060200190610f2d929190611269565b506060820151816003019080519060200190610f4a929190611269565b506080820151816004019080519060200190610f67929190611269565b5060a0820151816005015560c0820151816006015560e082015181600701556101008201518160080160006101000a81548160ff02191690836002811115610fb257610fb161167d565b5b02179055509050507ffbf3c6fd9b6b58d51637c97aa4498c2c698d731fe340fc44f0b0c982e0e4f0f1338685604051610fed93929190611c70565b60405180910390a16000611000866111a8565b905060006002600084815260200190815260200160002060080160006101000a81548160ff0219169083600281111561103c5761103b61167d565b5b021790555080925050509392505050565b60003373ffffffffffffffffffffffffffffffffffffffff1660008054906101000a900473ffffffffffffffffffffffffffffffffffffffff1673ffffffffffffffffffffffffffffffffffffffff16146110dd576040517f08c379a00000000000000000000000000000000000000000000000000000000081526004016110d490611a8f565b60405180910390fd5b8160018190555060019050919050565b6000808260405160200161110191906119d3565b604051602081830303815290604052805190602001209050600060026000838152602001908152602001600020905060018160080160006101000a81548160ff021916908360028111156111585761115761167d565b5b02179055504281600701819055507f5902317eab4ec0589335552ceda906a2d7ef4ae618b8a357ff022a9b34abb5438460405161119591906119ea565b60405180910390a1600192505050919050565b600080826040516020016111bc91906119d3565b604051602081830303815290604052805190602001209050600060026000838152602001908152602001600020905060008160080160006101000a81548160ff021916908360028111156112135761121261167d565b5b02179055507fb2cc69a0ed685e39fc3bf286b738ba86d4280a2865530ef2779322b7fdb1f37a338260010183600301846002016040516112569493929190611d4a565b60405180910390a1600192505050919050565b82805461127590611b73565b90600052602060002090601f01602090048101928261129757600085556112de565b82601f106112b057805160ff19168380011785556112de565b828001600101855582156112de579182015b828111156112dd5782518255916020019190600101906112c2565b5b5090506112eb91906112ef565b5090565b5b808211156113085760008160009055506001016112f0565b5090565b6000604051905090565b600080fd5b600080fd5b600080fd5b600080fd5b6000601f19601f8301169050919050565b7f4e487b7100000000000000000000000000000000000000000000000000000000600052604160045260246000fd5b6113738261132a565b810181811067ffffffffffffffff821117156113925761139161133b565b5b80604052505050565b60006113a561130c565b90506113b1828261136a565b919050565b600067ffffffffffffffff8211156113d1576113d061133b565b5b6113da8261132a565b9050602081019050919050565b82818337600083830152505050565b6000611409611404846113b6565b61139b565b90508281526020810184848401111561142557611424611325565b5b6114308482856113e7565b509392505050565b600082601f83011261144d5761144c611320565b5b813561145d8482602086016113f6565b91505092915050565b6000806040838503121561147d5761147c611316565b5b600083013567ffffffffffffffff81111561149b5761149a61131b565b5b6114a785828601611438565b925050602083013567ffffffffffffffff8111156114c8576114c761131b565b5b6114d485828601611438565b9150509250929050565b600073ffffffffffffffffffffffffffffffffffffffff82169050919050565b6000611509826114de565b9050919050565b611519816114fe565b811461152457600080fd5b50565b60008135905061153681611510565b92915050565b60006020828403121561155257611551611316565b5b600061156084828501611527565b91505092915050565b6000819050919050565b61157c81611569565b82525050565b60006020820190506115976000830184611573565b92915050565b6000602082840312156115b3576115b2611316565b5b600082013567ffffffffffffffff8111156115d1576115d061131b565b5b6115dd84828501611438565b91505092915050565b6115ef816114fe565b82525050565b600081519050919050565b600082825260208201905092915050565b60005b8381101561162f578082015181840152602081019050611614565b8381111561163e576000848401525b50505050565b600061164f826115f5565b6116598185611600565b9350611669818560208601611611565b6116728161132a565b840191505092915050565b7f4e487b7100000000000000000000000000000000000000000000000000000000600052602160045260246000fd5b600381106116bd576116bc61167d565b5b50565b60008190506116ce826116ac565b919050565b60006116de826116c0565b9050919050565b6116ee816116d3565b82525050565b60006101408201905061170a600083018d6115e6565b818103602083015261171c818c611644565b90508181036040830152611730818b611644565b90508181036060830152611744818a611644565b905081810360808301526117588189611644565b905061176760a0830188611573565b61177460c0830187611573565b61178160e08301866116e5565b61178f610100830185611573565b61179d610120830184611573565b9b9a5050505050505050505050565b6117b581611569565b81146117c057600080fd5b50565b6000813590506117d2816117ac565b92915050565b600080604083850312156117ef576117ee611316565b5b600083013567ffffffffffffffff81111561180d5761180c61131b565b5b61181985828601611438565b925050602061182a858286016117c3565b9150509250929050565b600060608201905061184960008301866115e6565b818103602083015261185b8185611644565b905061186a6040830184611573565b949350505050565b600060208201905061188760008301846115e6565b92915050565b6000806000606084860312156118a6576118a5611316565b5b600084013567ffffffffffffffff8111156118c4576118c361131b565b5b6118d086828701611438565b935050602084013567ffffffffffffffff8111156118f1576118f061131b565b5b6118fd86828701611438565b925050604084013567ffffffffffffffff81111561191e5761191d61131b565b5b61192a86828701611438565b9150509250925092565b60008115159050919050565b61194981611934565b82525050565b60006020820190506119646000830184611940565b92915050565b6000602082840312156119805761197f611316565b5b600061198e848285016117c3565b91505092915050565b600081905092915050565b60006119ad826115f5565b6119b78185611997565b93506119c7818560208601611611565b80840191505092915050565b60006119df82846119a2565b915081905092915050565b60006020820190508181036000830152611a048184611644565b905092915050565b60006040820190508181036000830152611a268185611644565b90508181036020830152611a3a8184611644565b90509392505050565b7f6e6f74206f776e65720000000000000000000000000000000000000000000000600082015250565b6000611a79600983611600565b9150611a8482611a43565b602082019050919050565b60006020820190508181036000830152611aa881611a6c565b9050919050565b7f696e76616c696420616464726573730000000000000000000000000000000000600082015250565b6000611ae5600f83611600565b9150611af082611aaf565b602082019050919050565b60006020820190508181036000830152611b1481611ad8565b9050919050565b6000604082019050611b3060008301856115e6565b611b3d60208301846115e6565b9392505050565b7f4e487b7100000000000000000000000000000000000000000000000000000000600052602260045260246000fd5b60006002820490506001821680611b8b57607f821691505b60208210811415611b9f57611b9e611b44565b5b50919050565b7f4e487b7100000000000000000000000000000000000000000000000000000000600052601160045260246000fd5b6000611bdf82611569565b91507fffffffffffffffffffffffffffffffffffffffffffffffffffffffffffffffff821415611c1257611c11611ba5565b5b600182019050919050565b6000608082019050611c3260008301876115e6565b8181036020830152611c448186611644565b90508181036040830152611c588185611644565b9050611c676060830184611573565b95945050505050565b6000606082019050611c8560008301866115e6565b8181036020830152611c978185611644565b90508181036040830152611cab8184611644565b9050949350505050565b60008190508160005260206000209050919050565b60008154611cd781611b73565b611ce18186611600565b94506001821660008114611cfc5760018114611d0e57611d41565b60ff1983168652602086019350611d41565b611d1785611cb5565b60005b83811015611d3957815481890152600182019150602081019050611d1a565b808801955050505b50505092915050565b6000608082019050611d5f60008301876115e6565b8181036020830152611d718186611cca565b90508181036040830152611d858185611cca565b90508181036060830152611d998184611cca565b90509594505050505056fea2646970667358221220e9fd02a5b109afbd05c58132b3fe67b2ae43130a01fdab5d6ed86eb6d0566c1b64736f6c63430008090033",
  "immutableReferences": {},
  "source": "// SPDX-License-Identifier: MIT\npragma solidity ^0.8.3;\n\n/// @title Search Manager \n/// @author Roberth Garcia.\n/// @notice smart contract for search workflow management.\ncontract DicioAlliacePoc{\n\n    error SearchAlReadyExistError(string _uuid);\n    error SearchNotExistError(string _uuid);\n    error SearchCompletedError(string _uuid);\n\n    event OwnershipTransferred(address previousOwner, address newOwner);    \n    event CreatedSearchEvent(address owner, string uuid, string cid);\n    event BroadcastEvent(address owner, string uuid, string cid, string curp);\n    event ParticipateEvent(address participant, string uuid, string cid, uint id);\n    event BroadcastEndingEvent(string uuid);\n    event SetScoreEvent(string uuid, string cid);\n\n    modifier onlyOwner(){\n        require(ownerContract == msg.sender, \"not owner\");\n        _;\n    }    \n\n    address public ownerContract;\n    uint public quorum;\n\n    enum State { Broadcast, Completed, Score }\n\n    struct Search {\n        address owner;\n        string uuid;\n        string curp;\n        string cid;\n        string score;\n        uint createBroadcast;\n        uint endBroadcast;\n        uint endDate;\n        State state;        \n    }    \n\n    struct Record {\n        address participant;        \n        string cid;  \n        uint recordDate;        \n    }\n\n    mapping (bytes32 => Search) private searchs;    \n    mapping (bytes32 => uint)  private counterForRecords;    \n    mapping (bytes32 => mapping(uint => Record)) private recordsBySearchs;\n\n    constructor(){\n        ownerContract = msg.sender;\n        quorum = 2;\n    }\n\n    function setOwner(address _newOwner)\n        external \n        onlyOwner\n    {\n        require(_newOwner != address(0), \"invalid address\");        \n        \n        address oldOwner = ownerContract;        \n        ownerContract = _newOwner;\n\n        emit OwnershipTransferred(oldOwner, _newOwner);        \n    }\n\n    function ChangeQuorum( uint _quorum)\n        public         \n        onlyOwner\n        returns( bool )\n    {\n        quorum = _quorum;\n        return true;\n    }\n    function DetailSearch( string memory _uuid) \n        public\n        view\n        returns ( \n            address owner,\n            string memory uuid,\n            string memory curp,\n            string memory cid,\n            string memory score,\n            uint createBroadcast,\n            uint endBroadcast,            \n            State state, \n            uint records,\n            uint endDate\n        )\n    {\n        bytes32 uuidTx = keccak256(abi.encodePacked(_uuid));\n        records = counterForRecords[uuidTx];\n        Search memory data = searchs[uuidTx];\n                \n        owner = data.owner; \n        uuid = data.uuid;\n        curp = data.curp;\n        cid = data.cid;\n        score = data.score;\n        createBroadcast = data.createBroadcast;\n        state = data.state;\n        endBroadcast = data.endBroadcast;        \n        endDate = data.endDate;\n\n        \n    }\n\n    function CreateSearch(string memory _uuid, string memory _curp, string memory _cid)                 \n        public \n        returns(bool)\n    {         \n        bytes32 uuidTx = keccak256(abi.encodePacked(_uuid));\n\n        // Valida que no exista en las busquedas \n        if(searchs[uuidTx].createBroadcast > 0) {\n            revert SearchAlReadyExistError(_uuid);\n        }\n\n        // Agrega la busqueda\n        searchs[uuidTx] = Search({\n            owner: msg.sender,            \n            uuid: _uuid,\n            curp: _curp,\n            cid: _cid,\n            score: \"\",\n            createBroadcast: block.timestamp,            \n            endBroadcast: 0,            \n            endDate: 0,\n            state: State.Broadcast\n        });\n\n        emit CreatedSearchEvent(msg.sender, _uuid, _cid);      \n\n        ( bool ok ) = BroadCastSearch(_uuid);\n\n        searchs[uuidTx].state = State.Broadcast;      \n            \n        return ok;\n\n    }\n    function BroadCastSearch(string memory _uuid)         \n        private \n        returns(bool)\n    {\n        bytes32 uuidTx = keccak256(abi.encodePacked(_uuid));\n\n        Search storage item = searchs[uuidTx];\n\n        item.state = State.Broadcast;\n\n        //Implementar logica para llamar a otro smart Contract\n        emit BroadcastEvent(msg.sender, item.uuid, item.cid, item.curp);\n\n        return true;\n    }\n\n    function Participate(string memory _uuid, string memory _cid) \n        public \n        returns(uint idRecord)\n    {   \n        bytes32 uuidTx = keccak256(abi.encodePacked(_uuid));        \n        \n        // Valida que exista en las busquedas \n        if(searchs[uuidTx].createBroadcast == 0) {\n            revert SearchNotExistError(_uuid);\n        }\n        // Valida que no este cerrado el broadcast\n        if(searchs[uuidTx].state == State.Completed) {\n            revert SearchCompletedError(_uuid);\n        }        \n        \n        counterForRecords[uuidTx]++;\n        idRecord = counterForRecords[uuidTx];      \n\n        recordsBySearchs[uuidTx][idRecord] = Record({\n            participant: msg.sender,\n            cid: _cid,\n            recordDate: block.timestamp\n        });\n        \n        emit ParticipateEvent(msg.sender, _uuid, _cid, idRecord);\n\n        if(counterForRecords[uuidTx] >= quorum)\n        {\n            CloseBroadcast(_uuid);            \n        }       \n    }\n\n    function DetailParticipation(string memory _uuid, uint id)\n        public\n        view\n        returns (\n            address participant,\n            string memory cid, \n            uint recordDate\n        )\n    {\n        bytes32 uuidTx = keccak256(abi.encodePacked(_uuid));\n        \n        // Valida exista la busqueda.  \n        if(searchs[uuidTx].createBroadcast == 0) {\n            revert SearchNotExistError(_uuid);\n        }\n\n        Record memory item =  recordsBySearchs[uuidTx][id];\n\n        return( \n            item.participant,\n            item.cid,\n            item.recordDate\n        );\n    }\n\n    function CloseBroadcast(string memory _uuid)         \n        private \n        returns(bool)\n    {\n        bytes32 uuidTx = keccak256(abi.encodePacked(_uuid)); \n        Search storage item = searchs[uuidTx];\n\n        item.state = State.Completed;        \n        item.endDate = block.timestamp;\n\n        emit BroadcastEndingEvent(_uuid);\n\n        return true;\n    }\n\n    function SetScore(string memory _uuid, string memory _cid)\n        public         \n    {\n        bytes32 uuidTx = keccak256(abi.encodePacked(_uuid)); \n\n        // Valida exista la busqueda.  \n        if(searchs[uuidTx].createBroadcast == 0) {\n            revert SearchNotExistError(_uuid);\n        }\n        // Valida el status. Deberia de ser completada\n        if(searchs[uuidTx].state == State.Completed) {\n            revert SearchCompletedError(_uuid);\n        }\n\n        Search storage item = searchs[uuidTx];\n\n        item.score = _cid;\n        item.state = State.Score;        \n        item.endDate = block.timestamp;\n\n        emit SetScoreEvent(_uuid, _cid);\n    }\n}",
  "sourcePath": "/Users/jrgarciasa/BitbucketRepos/blockchain-proof-of-concept/contracts/DicioAlliacePoc.sol",
  "compiler": {
    "name": "solc",
    "version": "0.8.9+commit.e5eed63a.Emscripten.clang"
  },
  "schemaVersion": "3.4.8",
  "updatedAt": "2022-07-11T23:57:25.833Z",
  "devdoc": {
    "author": "Roberth Garcia.",
    "kind": "dev",
    "methods": {},
    "title": "Search Manager ",
    "version": 1
  },
  "userdoc": {
    "kind": "user",
    "methods": {},
    "notice": "smart contract for search workflow management.",
    "version": 1
  }
}